:020000021000EC
:10000000E03F082093010100FB000100E100010036
:10001000090101001901010029010100000000008F
:1000200000000000000000000000000061A50100C9
:100030003901010000000000D1A5010059010100B3
:10004000BDAB0100BDAB0100BDAB0100BDAB01000C
:10005000BDAB0100BDAB0100BDAB0100BDAB0100FC
:10006000BDAB0100BDAB0100BDAB0100BDAB0100EC
:10007000BDAB0100BDAB0100BDAB0100BDAB0100DC
:10008000BDAB0100BDAB0100BDAB0100BDAB0100CC
:10009000BDAB0100BDAB0100BDAB0100BDAB0100BC
:1000A000BDAB0100BDAB0100BDAB0100BDAB0100AC
:1000B000BDAB0100BDAB0100BDAB0100BDAB01009C
:1000C000BDAB0100BDAB0100BDAB0100A05A0200F9
:1000D00000C00720B8010000B8C107206C04000070
:1000E00004207146084203D0EFF309800AF084BD72
:1000F000EFF308800AF080BD704708B5014807F0AB
:10010000C9FAFEE73654020008B5024807F0C2FA01
:10011000FEE700BF4154020008B5024807F0BAFAF2
:10012000FEE700BF4C54020008B5024807F0B2FADF
:10013000FEE700BF5754020008B5024807F0AAFACC
:10014000FEE700BF6454020008B5024807F0A2FAB7
:10015000FEE700BF7254020008B50AF0B5F90AF0D4
:100160005FFABDE808400AF0C3B90B4610B55C1A47
:10017000944204D2441AE45843F8044BF7E710BD04
:1001800003461A1A8A4203D2002243F8042BF8E7E6
:10019000704716480AF0E6FA14480AF0E6FA144CDA
:1001A000144B9C4207D294E803000C3454F8042CFE
:1001B000FFF7DBFFF4E7104B9C4206D254F8080B24
:1001C00054F8041CFFF7DCFFF5E70CF0A1FA0AF085
:1001D000E3FA01F0CBFD02F0D3FB4FF416400AF036
:1001E00029FE064807F056FAFEE700BFE03F082068
:1001F000CC000100D8000100E0000100865402009C
:10020000144A70B51368014613B94FF08053136058
:100210001068114B4518114E2B44B34298BF104B38
:100220000C4C96BFC81825602060126898BF18460D
:100230000C4B9A4281BF0C4A064B00201A6039B120
:100240000A4A136801331360094B1860094B19609F
:1002500070BD00BFBCC10720FF7FFFEFFE3F07104E
:1002600024C60720FF3F082000400820C4C1072003
:10027000B8C10720C0C107200CF066BB0CF06CBBF6
:100280000CF06ABB10B504468AB068460CF008FE54
:10029000204A214B2260089A2049A260079A626096
:1002A00052B90A681E4882428ABF02F1604202F1D6
:1002B0007042A2F5E82262606268B2F5803F82BFB8
:1002C00002F17042A2F5E82262600022E2600A6850
:1002D00013498A4205D8C3F1405303F50C239B1AF6
:1002E00009E010498A4207D8C3F1804303F580131F
:1002F0009B1A002B00DDE36020460B4BE2611B687C
:10030000A3610A4B1B686361094B1B6823610AB038
:1003100010BD00BF2406000024C60720BCC1072072
:1003200000800010FF3F0820B8C10720C0C107208F
:10033000C4C10720FEE70000014B1860704700BFF2
:10034000CCC10720014B1860704700BFC8C107200F
:1003500008B502480DF036FDFEE700BF902C020004
:1003600008B502480DF02EFDFEE700BFAA2C0200E2
:100370000020704701207047F8B5084B16461A68F0
:100380000F461C4642B10D46EB1BB34204DA23680C
:1003900015F8010B9847F7E73046F8BDCCC10720A8
:1003A000F8B5094B0F46186816461C4658B10D465D
:1003B000EB1BB34205DA23680020984705F8010BD0
:1003C000F6E726EAE670F8BDC8C1072070470020AE
:1003D00070470000074B1B689A68824207D05A6832
:1003E000824204D0DB681B1A5842584170470120F2
:1003F000704700BF3CC107200020704700207047B5
:1004000030B504468DB0A8B3684608F065F99DF88C
:100410000030002503F03F0303939DF8013003A84B
:1004200003F03F0304939DF802300B9503F01F0384
:1004300005939DF8043003F01F0306939DF80530E3
:1004400003F00F03013B0793BDF80630C3F30B0322
:10045000A3F26C7308939DF8033003F0070309932C
:10046000BDF80830C3F30B03013B0A930CF09EFB6D
:1004700084E8210000200DB030BD000070B50F4DA4
:100480000F4E2C6814F0010415D128460AF098FD8F
:1004900088B14FF40E70FFF7EFFE302380F835324D
:1004A0003A2380F8344280F8363280F837423060A0
:1004B00028460AF091FD306870BD00BFECC10720EE
:1004C000D4C1072070B50F4D0F4E2B6813F00104F7
:1004D00016D128460AF074FD90B14FF40E70FFF764
:1004E000CBFE012380F83432312380F835323A23B1
:1004F00080F8363280F83742306028460AF06CFDCA
:10050000306870BDE8C10720D0C107202DE9F04751
:10051000ADF51A7D0F4607F01EFD041E04DD09F03F
:100520009BFF204609F0DEFC0DF1140844462B4DDC
:100530000FCD0FC42B68102123600DEB01020024A6
:100540000AA8049409F090FE25498146254A3846B8
:1005500008F032FB26460AAD4FF0000ACA451ED00D
:100560006B69A34217D1AA69049B164423B1642185
:10057000B3FBF1F3B2FBF3F395F80CE00094298C94
:100580000293890001910392384617496A6858F826
:100590002E3008F011FB0AF1010A2435DEE70134A0
:1005A0000A2CD8D1049B64229E1BB3FBF2F30F49A3
:1005B0000F4AB6FBF3F30096384608F0FDFA09F04F
:1005C00077FB102804D938460A49102208F0F4FABB
:1005D00001200DF51A7DBDE8F08700BFC42C020094
:1005E000E32C02000A2D02000F2D02002C2D020028
:1005F0004B2D0200562D020010B50C46ADF5007DC6
:1006000068460AF061FA204669464FF0FF3208F06A
:100610009DFA01200DF5007D10BD000030B50C469F
:1006200091B02C49054607F0A2FB002847D008AB43
:10063000009309AB01930AAB02930BAB03930CAB92
:1006400004932846244906AA07AB07F0F8FA0728BE
:1006500001D000203BE09DF83930069A0DA862F3E6
:1006600003038DF83930079A9DF8383062F304039C
:100670008DF83830089ABDF83A3062F30B03ADF8C4
:100680003A30099A9DF8363062F304038DF836301B
:100690000A9A9DF8353062F305038DF835300B9AD0
:1006A0009DF8343062F305038DF834300C9A9DF8D0
:1006B000373062F302038DF8373008F035F808F070
:1006C000CFF806490246204608F076FA012011B01C
:1006D00030BD00BF802D0200842D02006A4C020054
:1006E000F7B50D464E49044607F031FC064640B1C9
:1006F00006F066FE28464B494FF0FF3208F026FA16
:100700008BE02046484907F022FC60B306F07CFEEF
:1007100046490246284608F04FFA06F081FE444951
:100720000246284608F048FA06F074FE414902469F
:10073000284608F041FA304606F05CFE06460120E5
:1007400006F058FE0446022006F054FE0746032039
:1007500006F050FE0097019037492846324623465E
:1007600008F02AFA59E02046344907F000FB50B15E
:1007700001212022204607F098FB204607F0E9FBE4
:1007800006F068FF49E020462D4907F0F0FA0646DA
:1007900020B920462B4907F0EAFA60B320462A49DF
:1007A00007F0D3FA60B92046284907F0CEFA28B9F5
:1007B0002046274907F0C9FA044602E0032400E076
:1007C00002242046314606F09BFE224A224B002E90
:1007D00018BF1A463CB1012C07D01C491A4B022CF9
:1007E00018BF0B4602E01D4B00E0194B28461C4980
:1007F00008F0E2F911E0204607F0ABFB19491A4A6C
:100800000090F323012006F089FE204607F0A1FBAB
:1008100016490246284608F0CFF9012003B0F0BD82
:10082000BF2D0200C52D0200DE2D0200E52D0200C5
:10083000FA2D02000F2E02002E2E02005E2E020064
:10084000622E02006A2E0200BA2D0200B42D0200B0
:10085000BA3F0200A52D02009D2D0200AE2D020020
:10086000732E02008C2E0200D82C0200BF2E020034
:1008700030B589B004AB002400930D46022219491B
:1008800003AB0394049407F0E8F9022827D107ABDF
:10089000009305AA0398049906AB0594069407945F
:1008A00003F0C4FA024638B1049B284600930E496F
:1008B000039B08F081F910E0059A069B002A079C2B
:1008C00008BF0122002B08BF012328460749B4FBBB
:1008D000F2F2B4FBF3F308F06FF9012000E02046D8
:1008E00009B030BD523F0200CD2E0200EC2E0200B6
:1008F0002DE9F0470D46ADF5856D3B49064607F0FD
:10090000C0FA3A498146304607F0E4FA37493046A2
:1009100007F000FB304607F01CFB0122014681A8CE
:1009200005F0A4FA044640B1304607F012FB304906
:100930000246284608F040F950E00DF1040A21462D
:100940004FF4007250460CF053F800940AF0A8F8E7
:10095000A04606460F4681A851464FF400726B46EA
:1009600005F01DFB08B9009B33BB81A805F0EFFC27
:10097000B9F1000F19D00AF093F84FF47A720023FE
:100980000BF0FAFA002304464FF47A7230463946E7
:100990000BF0F2FA201A14BF03460123284615492A
:1009A0004246B8FBF3F308F007F9284612494FF026
:1009B000FF3208F0CBF811E09844B9F1000FCAD12A
:1009C0004C46009B9C42C6D22B681AF804105B6808
:1009D00028464FF0FF3298470134F2E701200DF529
:1009E000856DBDE8F08700BF1A2F0200523F02005C
:1009F000232F0200372F0200C53402002DE9F047F3
:100A00000023BEB00C46554905460C9307F09FFAEB
:100A100020B9284607F09DFA064600E0504E15A87A
:100A2000314605F04CFD054620462DB14D49324674
:100A30002B4608F0C1F88CE04B49324608F0BCF870
:100A4000A8461EAF802315A80DA91397149305F08F
:100A50007AFD002865D19DF83D30002B61D09DF8CE
:100A60003C10DDF834C011F0100F09BF0C9B44227C
:100A700063440C930ABF2D22013508F1010811F0DF
:100A8000010F14BF52232D2311F0020F14BF4FF09A
:100A9000480A4FF02D0A11F0040F14BF4FF053090C
:100AA0004FF02D0911F0200FBDF8381014BF4FF092
:100AB000410E4FF02D0ECDF808E04FEA612EBDF843
:100AC0003A000EF2BC7ECDF80CE0C1F3431E01F0FB
:100AD0001F010591C1120691C0F345100DF13D01B2
:100AE000CDF810E0CDF820C007900991CDF800A016
:100AF000CDF8049020461D4908F05EF820461C49B8
:100B00004FF0FF3208F00EF8394620464FF0FF3222
:100B100008F008F8204611494FF0FF3208F016F8A7
:100B20008FE700953EAD55F8C83D12494246204634
:100B300008F042F8304629460BAA05F033FD40B9CB
:100B40000B9B20469A780C9B0B495A43520808F09D
:100B500033F801203EB0BDE8F08700BFC534020085
:100B6000522F0200552F0200792F0200942F02000D
:100B7000C12F0200C52F0200EF2F020070B50D46F5
:100B8000064607F0E6F90446304607F0E2F905F0BC
:100B9000CBFD064A064B0749002818BF13462846D6
:100BA000224608F009F8012070BD00BFAF310200F5
:100BB000A53102000330020070B50D46064607F06D
:100BC000C8F90446304607F0C4F905F050FD064A5E
:100BD000064B0749002818BF13462846224607F04F
:100BE000EBFF012070BD00BFAF310200A531020054
:100BF0001F3002007FB503AB002400930E46022293
:100C00000F4902AB0294039407F027F8022814D18D
:100C1000029D039C2846214605F030FE094B0A49F7
:100C20002A4600280CBF084618460849009023466B
:100C3000304607F0C1FF012000E0204604B070BD3F
:100C4000523F0200AF310200A531020031300200F4
:100C500030B5ADF50D7D0C46054607F07AF90A2250
:100C6000014603A805F002F940B1284607F071F9E2
:100C70001F490246204607F09FFF35E08DF8070028
:100C800002901C4920467E2242F2107307F094FF26
:100C90002046194907F090FF236820461B680DF194
:100CA000070142F21072984718B19DF807307E2B69
:100CB00003D103A805F04BFB16E003A80DF10701D3
:100CC000012202AB05F029FA10B9029B012B02D0D8
:100CD00020460A49DEE7236820465B689DF8071036
:100CE0004FF0FF329847D7E701200DF50D7D30BD5D
:100CF0004930020070300200A8300200C830020003
:100D00002DE9F047ADF5407D002304AC236003934B
:100D10000D4600944249022203AB06F09EFF0228D2
:100D200006D028463F494FF0FF3207F00FFF71E031
:100D300017A8216805F0C3FB18B128463A49226874
:100D400007E017A8039905F0BAFB28B128463749F0
:100D5000039A07F031FF5DE040A94FF4807205A8C7
:100D600006F03CFF0AA880A94FF4807206F036FF17
:100D700020AB159317A880230FA9169305F0E3FB6A
:100D8000002841D19DF84530002B3DD09DF84430DE
:100D900003F0100303F0FF06002BE9D1039A0DF1D5
:100DA000450305A8224907F01EF922680DF1450305
:100DB0001F490AA807F017F905A807F0CAF88046E6
:100DC0000AA807F0C6F8074605A8DDF83C9007F02A
:100DD000C0F882460AA807F0BCF8324601463346FE
:100DE0000096504603F022F8124A134BCDF80090BB
:100DF00000280CBF1846104610490190424628466C
:100E00003B4607F0D9FEB3E70AA806F0FDFE05A8A9
:100E100006F0FAFE01200DF5407DBDE8F08700BF29
:100E2000523F0200EF30020034310200593102001B
:100E300079310200AF310200A53102007F3102009A
:100E4000F8B50D462349064607F081F804460746E3
:100E500028B1FFF737FB002100F235200AE03046C9
:100E60001D4907F074F8044650B1FFF707FB3946F7
:100E700000F235200A4605F091FD1849184B1EE096
:100E80003046184907F063F8044648B1FFF71AFBEB
:100E9000012200F2352104F0ABFF1349134B0EE0A1
:100EA0003046134907F053F8044680B1FFF7E6FADD
:100EB000012200F2352104F09BFF0E490E4B002861
:100EC00008BF19464FF0FF32284607F03FFE204684
:100ED000F8BD00BF0632020010320200A831020045
:100EE0009E3102001D320200C5310200B531020000
:100EF00026320200EA310200DC31020008B5084661
:100F00004FF0FF32084907F021FE06F059FA4FF47E
:100F1000FA6008F0E7FF4FF08043AA221A7200221D
:100F20001A70012008BD00BF3232020010B5012046
:100F30000C4606F047FE38B100210A460B4608F081
:100F4000FFFA2046044901E0204604494FF0FF32F1
:100F500007F0FCFD012010BD4332020059320200AF
:100F600038B5064C236833B91C20FFF785F90546D0
:100F700007F0BAFA2560206838BD00BFE0C107203D
:100F80002DE9F04F0D46C7B05549814606F006FFE2
:100F900054498246484606F001FF53498346484675
:100FA00006F0FCFE00270DF1100805AE044602977E
:100FB0000397C8F800703760BAF1000F45D000966B
:100FC00048464A4902AA03AB06F039FE012807DC6D
:100FD000284647494FF0FF3207F0B8FD38467CE01D
:100FE0000DF118084FF480744046394622460BF044
:100FF000FFFC336813B90123336003E0B3F5807F4E
:1010000088BF3460FFF7ACFF33689DF808109DF887
:101010000C200093434607F094FE364A364B37497E
:10102000002808BF13462846029A07F0C5FD002491
:1010300033689C424ED2039A18F804302244284662
:101040002F4907F0B9FD0134F2E7BBF1000F2CD0B6
:10105000CDF8008048462B4902AA03AB06F0EFFD0D
:10106000032807D0284628494FF0FF3207F06EFDCD
:10107000504632E0FFF774FF9DF808109DF80C20F1
:1010800098F8003007F072FE48B1039B28460093A1
:101090001E49D8F80020029B07F08EFD1AE0284672
:1010A0001B49029A07F088FD14E0A8B102230293BD
:1010B000029BFE2B10DCFFF753FF9DF8081007F092
:1010C00060FE20B128461349029A07F075FD029B85
:1010D0000233ECE7012000E0204647B0BDE8F08F86
:1010E000754002009232020098320200A1320200E2
:1010F000B0320200AF310200A5310200D13202004D
:10110000F532020005330200153302003C330200C1
:1011100056330200733302002DE9F04F5F4C91B05B
:1011200023680E4633B92C20FFF7A6F8054607F0D2
:101130006FFC25602768FFF7A1F90DF1400B002433
:101140004BF80C4D00F2352059460CAA05F02AFA4E
:1011500048B90C9A0D9C95699378023D5C435D43B8
:1011600064086D0800E025464D4B1A6898467AB928
:101170000C20FFF781F88146FFF7F2FE902389F8F3
:1011800004300023C9F80000C9F80830C8F80090FE
:10119000D8F8000002F038FE80460AF0A7FE82462A
:1011A0000AF000FD014640460AF046FC3D490AF0BF
:1011B0004DFD0AF09BFE8146584609F0E3FA03F024
:1011C00071FD50B307F0C6FB03F056FD0023024645
:1011D00098469B4693420DD018460B920A9303F013
:1011E000AFFD0A9B584588BF98460B9A88BF834637
:1011F0000133EFE707F0C6FB642303FB0BF32A4A36
:101200003046B3FBF2F3C3F164038DE808092749C4
:1012100022462B4607F0D0FC05E030462449224602
:101220002B4607F0C9FC234C23681BB90120FFF7AC
:1012300023F82060206802F0ABFD044607F010FBA5
:101240009DF83930019003F00F0302939DF8383078
:10125000009403F01F030393BDF83A303046C3F304
:101260000B0304939DF83630134903F01F030593D5
:101270009DF83530524603F03F0306939DF8343015
:1012800003F03F030793BB8C0893FB8C09934B46F9
:1012900007F092FC012011B0BDE8F08FE4C10720F7
:1012A000D8C1072000002041A08601009933020028
:1012B000CD330200DCC10720DB33020070B5ADF591
:1012C0000A7D05460C4606F0B1FC0B2803DD2046DE
:1012D00023490C223DE0284606F03BFE0122014650
:1012E00001A804F0C3FD064668BB01A805F02FF86D
:1012F000284606F02EFE1B490246049B204607F0B6
:101300005BFC236820469B6898470A2008F0EAFDAA
:101310004FF0100383F31188BFF36F8FBFF34F8F2C
:10132000284606F016FE02460F4B0068516803C3BC
:1013300090680E4A186043F80C2C4FF08043AA22A4
:101340001A721E7007E0284606F003FE0246204689
:10135000074907F031FC01200DF50A7D70BD00BF83
:10136000583402007F340200484002400DD0ADDE08
:10137000C6340200F0B5404CA5B023680646DB0732
:101380000D460CD4204609F01BFE40B14FF480609E
:101390000BF0DAFA394B1860204609F01DFE304692
:1013A000374906F0FBFC0746044610B300218022B3
:1013B00004A80BF01DFB00230293039303AB0093DF
:1013C000304904AA02AB304606F039FC2B4A029B96
:1013D000116804A8039A13B902F0C8FD01E002F0F5
:1013E000E8FD0346284A29492846002B18BF114624
:1013F00037E03046264906F0D1FC0746002838D0B1
:10140000304604AB234903AA039404948DF80840A2
:1014100006F015FC039E049B3344B3F5806F0DDD8D
:1014200028461D494FF4806221E0144B9DF80820A6
:101430001B689A559DF8083001361C44039B049A9A
:10144000F31A934210DAB6F5806F0DDA2B6828464E
:101450001B6802A94FF4FA6298470028E5D1284694
:101460000E4907F0A9FB04E0284622460C4907F084
:10147000A3FB384625B0F0BDF4C10720F0C107201A
:10148000F1340200F8340200DF340200DB340200E1
:10149000083502000F350200193502003D35020003
:1014A0004D35020030B50C46054687B00A4907F0B5
:1014B00083FBA17A62880091E17A23880191E18817
:1014C0002846029121890391A1880491034907F0DC
:1014D00073FB07B030BD00BF5E35020094350200DB
:1014E0001FB501A80C4601F085FF01F06FFC01A9B2
:1014F00002462046FFF7D6FF012004B010BD0000D1
:101500002DE9F0418CB003AB002400930E46154644
:101510003A49022202AB0294039406F09EFBA042D9
:1015200039DD02980BF005F85FFA80F8039818B1DE
:101530000CF023FFC4B200E0044604A8002102F02E
:10154000E1FA30B130462E494FF0FF3207F0FEFA93
:10155000F3E7003518BF01250223009340462946D2
:10156000039A234601F068FD074638B930462549FD
:101570004FF0FF3207F0EAFA01273BE0002D39D0A7
:1015800004A84FF47A7102F0C7FA70B39DF81030D6
:1015900043452AD101E027462CE09DF817300C2B5B
:1015A00004D1304606A94246FFF77CFF3046B4B965
:1015B000154907F001FB9DF817309C420ADA3368A1
:1015C00004AA2244117A5B6830464FF0FF329847F4
:1015D0000134F0E730460D4907F0EEFA0AE00C4915
:1015E0004FF0FF3207F0B2FA04E030460949029AA0
:1015F00007F0E2FA38460CB0BDE8F081523F020035
:10160000B2350200D4350200FC350200473C02002E
:10161000103602002D36020038B50D4606F09BFC50
:101620000446C0B201F0C6FB054A064B0649002835
:1016300008BF13462846224607F0BEFA012038BDEF
:1016400053360200A53102005A36020037B50C4667
:1016500001F034FD05461649204607F0ADFA15495C
:1016600020462A4607F0A8FA2046114907F0A4FAB6
:10167000D5B11149204607F09FFA20460C4907F0E2
:101680009BFA0025E8B201F003FD013540B18178F5
:101690000278437800912046084907F08DFAF1E777
:1016A0002046034907F088FA012003B030BD00BF8F
:1016B000713602008C360200A6360200C1360200E6
:1016C00030B58BB00AAA4FF47A730C4642F8243D29
:1016D000174906F0B4FA002502A8019902F012FA9F
:1016E000D8B1204613499DF8082007F065FA002577
:1016F0009DF80F309D420ADA236802AA2A44117A23
:101700005B6820464FF0FF3298470135F0E72046EE
:10171000094907F051FA0125DEE72DB920460749AE
:101720004FF0FF3207F012FA01200BB030BD00BFBE
:1017300016350200DC360200C4340200F336020023
:101740002DE9F3473C4C074626688946002E62D1B6
:101750002420FEF791FD0423054680E848008660BA
:10176000C660202130460CF097FBAE68E8604FEA77
:101770008608072E0ED81020FEF77EFD8246002137
:1017800010220BF035F9EB68013643F808A008F198
:101790000408EEE7002608234FF001086B6085F887
:1017A000208028462549264A264B0096256005F0CC
:1017B00083FB20682449254A254B009605F07CFBD5
:1017C00020682449244A254B009605F075FB2068C3
:1017D0002349244A244B009605F06EFB20682349D8
:1017E000234A244B009605F067FB20682249234AD0
:1017F000234BCDF8008005F05FFB20681E49214A8D
:10180000214B009605F058FB009620681F49204A9E
:10181000204B05F051FB38461F4906F098FB18B1E4
:1018200038461E4906F04DFC39464A46206802B04B
:10183000BDE8F04705F022BCFCC10720ED1A01000D
:10184000043702000B370200C118010045370200BF
:101850004E370200C1160100A2370200A537020070
:1018600019160100273D0200C83702004D1601007D
:101870000E380200F237020001150100573802004D
:1018800015380200563802005B380200E1140100EE
:101890009B38020080380200C5340200A1380200E3
:1018A00038B5064C236833B95820FEF7E5FC0546E9
:1018B00006F0F2FE2560206838BD00BFF8C10720A1
:1018C0002DE9F04F0446ADF2DC5D80220DF1B40944
:1018D00088460DA800210BF08BF800218022484695
:1018E0000BF086F806AE002333602046009675495B
:1018F0000DAA4B4606F0A3F9032801D00020DDE035
:10190000EDA80DA9012204F0B1FA05460028F5D191
:10191000FFF7C6FF33684DA980F853308022044694
:1019200008A88DF81750079506F058F9CDF80090E3
:10193000404665490DAA336807F03EF92F46EDA8E9
:101940006DA94FF4007207AB04F029FB38B1EDA884
:1019500004F0FDFC08A806F057F90120AEE0079B53
:10196000002BF4D06E1C5949079A204607F024F941
:10197000236820469B6898476DAB9B46751E4FF0C9
:10198000000A0799C3EB0B028A4222680FD2039325
:10199000CDF808B0D2F804C020464FF0FF321BF853
:1019A000011BE047029B1A78039B9244E9E7936886
:1019B0002046984708A806F0CCFA834608A806F007
:1019C00038F94FF47A7302465946204607F0CCF8AE
:1019D0000121202208A806F068FA08A806F0BBFA40
:1019E000504520D008A806F0B6FA394903465246B9
:1019F000404607F0E1F82046364907F0DDF8236855
:101A000020469B689847236820461B680DF1170104
:101A10004FF47A7298470028F5D1022E06F101039F
:101A200095D81E469FE7079B2B494A4600932046C0
:101A30003B4607F0C1F8236820469B68984708A8F2
:101A400006F087FA824608A806F0F3F851460246E7
:101A50004FF47A73204607F087F808A81F4906F06C
:101A600074F9D0B908A806F074FA1D490246404638
:101A700007F0A2F82046174907F09EF82368204691
:101A80009B689847236820461B680DF117014FF4A7
:101A90007A7298470028F5D1BFE708A8114906F0E7
:101AA00010FB079B40461F440F493A46F09B07F046
:101AB00083F8002D3FF443AF013D40E70DF2DC5DBC
:101AC000BDE8F08FA6380200B5380200CC3802001D
:101AD000DE380200C4340200053902001B3902005E
:101AE0001E390200C5340200563902002DE9F041CA
:101AF000074686B006AA002442F80C4D0E463C4923
:101B000006F09DF838460121202206F0CEF9039B0D
:101B1000002B63D0384606F089F800285ED0FFF726
:101B2000BFFE05468DF80B402B6828461B680DF15B
:101B30000B010522984704460028F5D1039B38463F
:101B400085F8533006F005FA274601464FF0FF327C
:101B5000284606F0FBFF2B6828469B689847254BD4
:101B60000594186804902B6828461B680DF10B013A
:101B70004FF47A72984778B10DF11501032205A848
:101B80000AF01BFF9DF80B8005A804A904228DF81C
:101B900017800AF0F7FE38B91822B7FBF2F302FB00
:101BA000137262B101330AE0336830465B68414624
:101BB0000122013798470028D5D10134D3E73046B8
:101BC0000D493A4606F0F8FF74B1612300933046A0
:101BD0000A4922460A4B06F0EFFF05E03046094964
:101BE0004FF0FF3206F0B2FF012006B0BDE8F081F1
:101BF000163502005A3502006239020089390200A6
:101C0000423A02007E3A020001480CF0DBB800BF05
:101C1000AA3A020038B504460D4609F0B9F8074B58
:101C2000B0FBF3F00223B0FBF3F2954201D3236142
:101C300038BDB3F5807FFAD00233F4E740420F009D
:101C40007FB500F235260C460122314604F0D0F86B
:101C5000054650BB04A941F8040D02AA304604F021
:101C6000A1FC00BB029A039B9078926903FB00F1F0
:101C7000023A42435208B2F5004F104834BF0125E2
:101C80004FF480654FEA51010D4BB1FBF5F128BFD0
:101C90000346B2FBF5F28DE80A000A4821460CF033
:101CA0001BF8012008E0084B00E0084B08482146DB
:101CB0002A460CF011F8002004B070BDE83A02008A
:101CC000E53A0200F23A0200EB3A0200EF3A020073
:101CD000203B020038B5074C23684BB90820FEF7BB
:101CE000CBFA0546FFF73CF9402328602B712560AD
:101CF000206838BD08C2072038B5054C256825B9CD
:101D00000120FEF7B9FA05702060206838BD00BFD9
:101D100004C2072038B5084C23685BB90C20FEF7D5
:101D2000ABFA0546FFF71CF990232B7100232860BE
:101D3000AB602560206838BDD8C1072010B5044CC1
:101D400023681BB90120FEF797FA2060206810BDB8
:101D5000DCC1072010B5044C23681BB90120FEF735
:101D60008BFA2060206810BD00C20720AD49AE4A42
:101D70004023F0B58B614FF0007393614FF48033D3
:101D80008B61AA4BADF5057D1868072520F0F000A2
:101D900018601868022440F050001860186820F499
:101DA00040501860086840F040000860186820F44F
:101DB0007C201860186840F428201860186820F407
:101DC00070001860186840F420001860186820F04F
:101DD00040401860186840F000401860586820F0D3
:101DE0003C005860586840F028005860586820F05F
:101DF00003005860086840F480300860586820F498
:101E000040505860086820F480000860D96821F4C8
:101E10004031D960116841F080711160596821F436
:101E200040215960596841F480215960986880497F
:101E300001409960116841F4897141F0010111601C
:101E4000996821F470119960996821F07041996046
:101E5000116821F446411160D96821F03001D96040
:101E6000D96841F03001D960D96821F47011D96086
:101E7000136843F000731360136823F080631360EA
:101E800006F07CF90A20012108F0A2FD0A200121B8
:101E900008F0B6FD6748012105604460FFF7BAFE0F
:101EA00006F0E8FC1520012108F092FD1520012123
:101EB00008F0A6FD6048012105604460FFF7AAFE16
:101EC000FFF74EF8642106F0D9FA10B95B480BF021
:101ED00079FF08F0BBFD01F0EFFD10B958480BF099
:101EE00071FF4FF4FA6006F003F9FFF78DFE08F07A
:101EF0004FFF09F053FE534909F05CFF09F0D4FC91
:101F000002460B4650480BF0E7FE08F035FC05286A
:101F100004AC14D1002363604C4B1B682360FFF7B3
:101F200073FE4B4B4B48D96C1A6D5B6D00940BF0F4
:101F3000D3FEFFF769FE41F2883006F0D9F8FEF7CC
:101F40009DFA4549FFF77CFE054668BB43480BF008
:101F5000C3FE02F01FFFFEF791FA29462A4600F25F
:101F6000352004F01BFD3E4B3E4A00280CBF1046B6
:101F700018460BF027FFFEF781FA3749FFF760FE9E
:101F800090B939480BF01EFF02F086FE0146374833
:101F90000BF0A2FE02F070FE054602F07DFE05FB8E
:101FA00000F133480BF098FE324E334F336813F094
:101FB000010516D1304609F003F890B14FF40E70C8
:101FC000FEF75AF9012380F83432312380F8353294
:101FD0003A2380F8363280F837523860304608F0BD
:101FE000FBFF26493868264DFFF72AFE11481821C5
:101FF000FFF710FEFFF708FE2B684BB90820FEF72D
:102000003BF90646FEF7ACFF3823306033712E6093
:10201000286801F0D0FD0546B0BB1A480BF0D2FE8F
:1020200033E000BF00C0092020C0092000C00240EA
:10203000F0FCFCFF0000034000800840643B02000D
:10204000953B020000247449BA3B02004440024020
:1020500000400240D23B02004A3C0200523C0200D7
:10206000583B0200533B02008F3C0200AE3C020092
:10207000BD3C0200E8C10720D0C10720D4310200D6
:1020800010C20720D83C02000125FFF743FE01F0F3
:1020900091FE064618B972480BF094FE3546FFF7DC
:1020A00019FE01F009FE064618B96E480BF08AFECB
:1020B00035466D4E33681BB90120FEF7DDF8306000
:1020C000306801F0C7FDFFF739FE01F05FFEFFF752
:1020D00013FE01F02BFEFFF73DFE01F05CFEFFF763
:1020E0000BFE002101F024FE8DB9FFF78DFDFFF7F7
:1020F000F1FD2D2101F0C8FDFFF7ECFD2D2101F0D0
:10210000CFFDFFF7F9FDFF2101F012FE0CE0FFF714
:10211000E1FD0546FFF7FEFD01F076FE09F00CFF3C
:10212000C1B2284601F0E4FD0021102220460AF049
:102130005FFC4E4821460F22002301F0F4FE80B9D7
:1021400020460AF0F6F9C5B2284600F033FE484AA8
:10215000484B2946002808BF13464748434A0BF01E
:10216000BBFDFFF7EBFD01F013FE054600200DF06F
:10217000ABF828440BF02EFE4FF4007200212046ED
:102180000AF036FC204608F09FFC21463B480BF045
:10219000A3FDFFF739FD8022002120460AF028FC2C
:1021A000204602F055FD2278FF2A04D0214634480B
:1021B0000BF092FD29E0FFF7CDFD01F0EFFD0928BE
:1021C0001DD130480BF0FEFD21462F480BF036FFA5
:1021D00021462E480BF080FD2D480BF0F3FD002327
:1021E0002C4803A903930BF029FF9DF80C30592BC1
:1021F00003D1204602F00AFD07E0274803E0274804
:102200000BF0E0FD26480BF0DDFD4FF208031C68E3
:102210004FF20C031D684FF210031E684FF20403C7
:1022200019684FF470431A68A40AAD0A1D480BF0F0
:1022300053FD224629461C480BF04EFD31461B48F3
:102240000BF04AFDFFF7E0FC012005F0EFF818481D
:102250000BF0B8FDFFF7D8FC0DF5057DF0BD00BF14
:10226000F33C02000D3D02000CC20720263D020097
:10227000533602005E3B02002C3D02006A4C020015
:10228000603D02007C3D02009E3D0200A33D020035
:10229000BE3D0200013E0200053E02001D3E02005E
:1022A0004B3E02007D3E0200A93E0200D63E0200E7
:1022B000F33E020001207047012070470120704763
:1022C00010B5044C23681BB90120FDF7D5FF206031
:1022D000206810BD0CC2072001207047F8B50446E5
:1022E0000E46C06889000BF0D7FDA568E060AF001E
:1022F000B5420BD20C20FDF7BFFF00230360436003
:102300000372E3680135D8510437F1E76660F8BD20
:1023100038B504460F4B00250360636DE06D9D42A8
:1023200005D250F82500FDF7A9FF0135F5E708B102
:10233000FDF7A6FF0025A36B206C9D4205D250F847
:102340002500FDF79BFF0135F5E708B1FDF798FF84
:10235000204638BD303F020010B50446FFF7D8FFD5
:102360002046FDF78BFF204610BD0000F7B5044660
:1023700000250B464FF480520095254905F008FCD6
:10238000244B042623606663A563E563256404F19A
:1023900034000221FFF7A2FF26656565A565E565A6
:1023A000284660210BF078FDA56DE065AE00172D85
:1023B0000CD81020FDF760FF0746002110220AF01C
:1023C00017FBE36D01359F510436F0E71823636571
:1023D000012384F87030104E0023A4F87430A4F860
:1023E0007630A367002200230027C4E92023C4E934
:1023F000226708F055FB4FF47A72002309F0BCFD08
:1024000080197941C4E92001204603B0F0BD00BF26
:10241000483F0200303F0200C0D401002DE9F041E6
:1024200091E860000F7A14468FB1082A23D1304614
:1024300005F0FCFB00281CDD284614494FF0FF3254
:1024400006F070FB3046012105F0EFFC08E00A2A97
:1024500019D00D2A12D03046214605F007FE97B15B
:102460002B6828462146BDE8F0415B684FF0FF32FB
:1024700018470724F4E70A2A02D1F1E7BDE8F08102
:102480000D2AE8D1ECE7BDE8F08100BF513F020022
:10249000F8B50446142015460F46FDF7EDFE8021E1
:1024A000064605F093FDA36BE26B9A4206D3616B7F
:1024B000591803D204F13400FFF710FFE36B226CCC
:1024C000591C52F82330E1631F605E601D72F8BD35
:1024D0002DE9F043CF6B85B006460D4601AC4FB9F0
:1024E0004FF47A7007F0FEFC204639460C220AF0C1
:1024F0007FFA47E00B6C1B6893E8070084E807004D
:1025000000238DF8033007F0C7FB80460027EB6BF4
:102510009F4263D22B6C4FEA870953F82730186823
:10252000037C33B103680DF103011B680022984757
:1025300008B90137EBE7EB6B9F422BD22B6C53F8BA
:10254000093093E8070084E807009DF80320284637
:102550002146FFF763FF08F0A3FA4FF47A720023D5
:1025600009F00AFDD5E9222380185941C5E9200167
:10257000029805F05BFB0746029805F05AFB01380C
:1025800087420ADB94E8070086E80700304605B07A
:10259000BDE8F08305F14403D3E7D5E922231343D3
:1025A00024D008F07DFA4FF47A72002309F0E4FC9D
:1025B000D5E92023994208BF904217D308F070FA5A
:1025C0004FF47A72002309F0D7FCD5E92223801852
:1025D00059410023C5E920010193D3E707F05CFBD3
:1025E0004045C5D1022007F07DFCC1E79DF80330CE
:1025F0000A2B88D1C6E70000F0B5064685B0204812
:102600000BF06AFB01A83146FFF762FF019C1CB981
:102610001C480BF0D7FB30E0029F384605F006FB64
:1026200000282ADD08F03CFA0546F8B1B6F8743007
:1026300006F150000133A6F874303946224604F002
:102640001DFD114B00261868009023681DF8061028
:102650005B6820464FF0FF3201369847042EF4D1D4
:1026600008F01EFA411B09480BF036FB384605F00E
:10267000E2FA236820469B689847012005B0F0BD28
:10268000543F0200C5340200213F02005A3F0200BD
:1026900038B5064C236833B92C20FDF7EDFD05460F
:1026A00006F0B6F92560206838BD00BFE4C10720F8
:1026B00010B50446FFF7ECFF03682146BDE8104063
:1026C0005B684FF0FF32184713B5002302AC04F8E3
:1026D000013DFFF7DDFF036821461B684FF0FF3225
:1026E00098479DF8070002B010BD00002DE9F041A9
:1026F00000F150048AB000250746009520465B494A
:102700005B4A5C4B04F0D8FB009520465A495B4A73
:102710005B4B04F0D1FB009520465A495A4A5B4B6B
:1027200004F0CAFB0095204659495A4A5A4B04F016
:10273000C3FB009520465949594A5A4B04F0BCFB4B
:10274000009520465849594A594B04F0B5FB00956D
:1027500020465849584A594B04F0AEFB0095204694
:102760005749584A584B04F0A7FB00952046574953
:10277000574A584B04F0A0FB009520465649574A4B
:10278000574B04F099FB009520465649564A574B43
:1027900004F092FB009520465549564A564B04F0EA
:1027A0008BFB009520465549554A564B04F084FB57
:1027B000009520465449554A554B04F07DFB009541
:1027C00020465449544A554B04F076FB0095204668
:1027D0005349544A544B04F06FFB0095204653492B
:1027E000534A544B04F068FB009520465249534A23
:1027F000534B04F061FB009520465249524A534B1B
:1028000004F05AFB009520465149524A524B04F0BD
:1028100053FBFFF73DFF4FF480734FF41641202226
:10282000054606F0D5F8804601262E744B48FDF784
:1028300089FD4B48FDF780FD384629463246FFF7B3
:1028400027FE03A9082205A805F0C8F905A84549EF
:1028500005F037FC05A92A46204604F00FFC05A820
:1028600005F0D2F940460AB0BDE8F0810D0501003F
:10287000BA3F0200703F0200F9050100A73F0200C5
:10288000AF3F020019110100CD3F0200BF3F02001F
:102890001D06010015400200D43F0200F1080100AE
:1028A0001A4002001E40020071080100BD400200F3
:1028B0007A400200010D0100BC400200C04002004D
:1028C000FD0901000B4102000E4102007D0B0100D9
:1028D0003C41020042410200F50B01006741020049
:1028E0006A410200510C0100595802009741020050
:1028F000B90B0100BC410200BF410200810F010081
:10290000E2410200E6410200410E0100B94202002C
:10291000C1420200FD0E0100044302000B4302000D
:10292000E10601001E430200224302002D0F0100B8
:10293000214402002744020041170100B13B02007C
:102940004F440200751301006D45020079440200F6
:10295000BD1201001732020036450200C9260100EF
:10296000B1260100A1380200704708B501F0DEF879
:10297000012008BD10B50446FDF780FC204610BDBF
:1029800037B59020FDF778FC04460321FFF7EEFCF5
:10299000204605F0CFF83420FDF76EFC05460024F4
:1029A0004FF4007208490094042305F0F1F8074B36
:1029B00028462B6005F0BEF82046214605F0C8F8F1
:1029C0004FF0FF3003B030BDB13B0200B84502000C
:1029D000242310B503FB010188420BD043783BB19F
:1029E000038CD4184FF6FF73A34228BF23460384F9
:1029F0002430F1E710BD000037B5002302A840F8ED
:102A0000043D0C4B04215B6898470B4B019A1C68F2
:102A10000546141B1A60094822460421FFF7D8FF17
:102A2000074802212246FFF7D3FF281C18BF0120C8
:102A300003B030BD14C20720E0C2072028C207201F
:102A400003C3072008B50B4B197803788B420A4B58
:102A50000BBF1A889A880132013214BF9A801A80FB
:102A6000064B8170DB6820219847003018BF012099
:102A700008BD00BF05C00720D0C2072014C2072030
:102A80000A4B02781B789A42094B0BBFDA881A89E5
:102A9000013201320CBFDA801A810379C3F3C2021A
:102AA000073262F3C5030371FFF7CCBF05C00720EF
:102AB000D0C2072010B5002306499A0011F8234020
:102AC000844201D1881810BD0133042BF4D10020B9
:102AD00010BD00BFF1C2072070B1C3780133DBB273
:102AE000FF2BC37008D10023044A1A44D178043361
:102AF0004908102BD170F7D1704700BFF1C20720F1
:102B0000242202FB01010346024630B58A4206D068
:102B10001446243212F8235C002DF7D10FE004464E
:102B200000258B420BD01A79C2F3C2001A8C42EAFC
:102B3000004295423CBF1C4615462433F1E720462F
:102B400030BD000038B50546C90001F10804FFF7A3
:102B500053FF1C4B1A782B789A4204D102211A4851
:102B6000FFF7CEFF0CE019480421FFF7C9FFEB780F
:102B700033B990F82330042443F0800380F82330E5
:102B8000002380F8203080F8213002462B4690F850
:102B9000231080F8224021F07F01C4F306240C4367
:102BA00080F8234005F1200153F8044B8B4242F892
:102BB000044BF9D1064A0379127862F3C503037115
:102BC00038BD00BF05C0072003C3072028C2072067
:102BD00004C0072010B5FFF76DFF0446F8B9FFF7F2
:102BE00069FF0446D8B90F4BDA79D9788A4228BFF1
:102BF0000A46D97A34BF1C1D1C4691422CBF11468F
:102C0000094CDA7B094B8A4238BF1C460422204615
:102C1000002109F0EDFE064AD37A0133D372204633
:102C200010BD00BFF1C20720F9C20720FDC2072076
:102C3000D0C207202DE9F04105460C464FF024088C
:102C400008FB02188E1D444500F09E8094F8233046
:102C50001A0625D5BDB12A7861788A4205D16F78E8
:102C600016F8060C874200F09180E87858B1687831
:102C7000884208D116F8061C914204D1A979A2799C
:102C8000914200F0838094F82220218C03F07F038E
:102C900042EA0323994274DB2046FFF7D3FE75E036
:102CA0006278002A6DD06DB3297901F0C001C02986
:102CB00017D116F8060C6978884202D1287890421C
:102CC00064D0E778A87887420CD191420AD116F8EF
:102CD000060C2978884205D1A079A979884201D1CA
:102CE00054E079B1A878E17888420BD169789142B3
:102CF00008D116F8060C2978884203D1A079A97961
:102D0000884249D094F82210208C03F07F0341EAD6
:102D10000323984235DB002384F8203084F82130E7
:102D20002379C3F3C201CFB21FB12046FFF7A8FE3B
:102D300027E003F0C003C02B19D01C4B16F8060C7B
:102D40001B78984213D1E378934210D07BB163791A
:102D5000032262F307136371E1702046FFF790FED0
:102D6000134A2379127862F3C503237100E0012727
:102D70006078FFF79FFE18B10021042209F038FEA9
:102D800027B9243424365EE7BDE8F08120460021CF
:102D9000242209F02DFEF4E72279002363F3C50213
:102DA00084F8203084F821302271EAE705C007203A
:102DB00004C00720431EDBB2FD2B9DBF024B1870E1
:102DC00001200020704700BF05C00720014B187884
:102DD000704700BF05C0072007289CBF014B187033
:102DE000704700BF04C007202DE9F7430446914611
:102DF0001E469DF828500F46002963D0354B93F8A6
:102E00000080414560D00F2E5ED800285ED0202281
:102E1000002109F0EDFDFF2F237914BF09F0030213
:102E2000002262F38713032262F302032A4A6770C7
:102E3000127884F8008062F3C503284A237113785E
:102E400084F802800133DBB21370A3710BAB0193E2
:102E500015B94FF0010818E0019AE079134652685D
:102E600053F8081B00EB02085FFA88F8013DB8F13F
:102E7000180F0193EDB206D80830204409F092FDF6
:102E800084F80780E4E74FF00008DFF8549001234E
:102E9000384689F80030FFF70DFE0546FFF71CFEA7
:102EA000002389F80030637925B966F3071363714D
:102EB000E57005E0AA7862F3071363716B78E3703D
:102EC000404603E0084601E00020FFE703B0BDE80C
:102ED000F08300BF05C0072004C0072001C30720FE
:102EE000DCC20720124B012270B51A7004461E4640
:102EF00008B9002518E0FFF7A5FD05460028F8D021
:102F0000237903F0C003402B06D0C02B0AD1E3780D
:102F100053B162789A4207D0617920460909FFF7D8
:102F200011FE01E0802BF7D000233370284670BDDE
:102F3000DCC2072082B0F0B51746421ED2B28DB077
:102F4000FD2A04460D46139301D900205AE0002BB8
:102F5000FBD0159B002BF8D0179B002BF5D0169BB0
:102F6000002BF2D0149B002BEFD0002148222848E0
:102F700009F03EFD00219022264809F039FD00218C
:102F80001022254809F034FD00210C22234809F0C5
:102F90002FFD00210C22224809F02AFD214E224B50
:102FA0001C703446214B1D7013AD0FCD0FC42B6820
:102FB000002118221E48236009F01AFD39461C48DA
:102FC00017220BF01EFA0020B3680146984700282C
:102FD000BBD09DF8603013B9FFF70EFD12E0154A23
:102FE0000123019206220292009304A8FF210022ED
:102FF000FFF7FAFE0028A8D004A8FFF773FF002807
:10300000A3D0E9E70DB0BDE8F04002B0704700BFC3
:1030100003C3072028C20720F1C20720E5C207200A
:10302000D0C2072014C2072005C00720E4C2072031
:10303000B8C20720D045020030B5182B8DB0054628
:103040000C4615D8B2FA82F1181C18BF01204909A4
:1030500081420DD08DE80D00294604A822469DF836
:103060004030FFF7C1FE18B104A8FFF73BFF00E0B6
:1030700000200DB030BD13B50446107852790B46D0
:103080001209009203212246FFF7D6FF02B010BDBD
:1030900000231A4630B5084C990014F823502DB17E
:1030A000904201D1601830BD0132D2B20133042BFD
:1030B000F1D1002030BD00BFF1C207200023184627
:1030C000044A12F823200AB10130C0B20133042BA4
:1030D000F6D17047F1C207202DE9F04188B068466B
:1030E0000021202209F084FCA14B1B7803F0FF048F
:1030F000002B40F03A819F4E684633692021984763
:10310000002800F083809C4D6B8801336B80FFF7B3
:10311000D5FF9DF80420A87202F00703032B04D00A
:10312000964A137843F0010309E0954B1D789DF80A
:103130000230AB4205D1914A137843F00203137079
:10314000E3E0C2F3C2029DF800E09DF80600D7B2AA
:103150008C4904EB440313F801C0F4450AD10B4435
:103160005978814206D199780124CF1B18BF0127D5
:103170009A7018E00134042CEAD183490B689A70E4
:10318000804A587002F10900834283F800E040F061
:10319000C9800A609DF800009DF80230834240F02B
:1031A000C480002427469DF80200FFF713FD9DF818
:1031B000022002709DF80220427000228270FFF708
:1031C0008BFC04B117B39DF80030AB4200F09C803B
:1031D0009DF80170FF2F1BD1336868462021984766
:1031E00020B9664A137843F0040313709DF8053044
:1031F00003F00F02511C61F303038DF80530C3F394
:1032000003139A4202DA6846FFF71CFC00247CE0B4
:10321000BD422BD164B99DF807304BB13368684685
:103220002021984720B9554A137843F004031370BE
:103230009DF8043003F0C003402B12D19DF80730F5
:1032400013B95248182108E04B480C216A46FFF791
:1032500012FF002858D1002001466A46FFF70BFFF5
:1032600052E09DF80330002B4ED1F4E7484B1B7819
:10327000002BCBD09DF8054004F00F064FEA141840
:103280004645C3DA013666F303043846FFF712FCFD
:103290008DF805409DF80340A5421ED19DF804100D
:1032A00001F0C001402906D0A1F180035A425A41E1
:1032B000144618B91BE00122002854D0C0294378D5
:1032C00005D19F4203D0003318BF012300E0002343
:1032D000134303F0010428B90BE0ACB910B96846F8
:1032E00041460FE043788DF80330857804E0C0292B
:1032F00039D000258DF803506846FFF7A3FB1CB1B9
:1033000068462946FFF71EFC6C46FFF775FB204612
:1033100020490422FFF78EFC20461F490222FFF7B6
:1033200089FC22E003330B6034E785423FF439AF78
:10333000FFF750FC0446FFF7CFFB23783BB19DF825
:103340000530A27803F00F0393423FF72AAF9DF8B0
:10335000003023709DF8023063709DF80530C3F390
:103360000303A3701DE70346B2E708B0BDE8F08190
:10337000DCC2072014C20720D0C2072002C30720E6
:1033800005C00720E5C2072000C00720B8C20720FB
:10339000E4C2072028C2072003C3072000231846E1
:1033A000094A1A4452780AB10130C0B22433902B32
:1033B000F6D1064B5A780AB10130C0B293F82530E5
:1033C0000BB10130C0B2704728C2072003C30720E9
:1033D00008B5FFF76FFB064B28B18278187802FB1F
:1033E0000000C00008BD18781823584308BD00BF6E
:1033F00004C0072003490B6803604B6843608B6877
:1034000083607047D0C2072030B5414C4FF48035FF
:10341000E561404CA060E068C506FCD43D4880688A
:10342000C0B20BB90C4665E00B46002A6AD0072AE9
:10343000384C0D782FDDA5604D78083AA5608D7861
:10344000A560CD78A5600D79A5604D79A5608D79D1
:10345000A56001F10805C979A1602E498C6964074E
:10346000FBD58C681C708C685C708C689C7089685B
:10347000D9702849CC68E406FBD48C68083303F87B
:10348000044C8C6803F8034C8C6803F8024C896880
:1034900003F8011C1BE0032A1BDDA5604D78043AEC
:1034A000A5608D78A5600D1DC978A1601949CC680B
:1034B000E406FBD48C68043303F8044C8C6803F8EE
:1034C000034C8C6803F8024C896803F8011C2946F8
:1034D000ABE70131A560013AE568ED06FCD40D4C7F
:1034E0000133A46803F8014C9FE7DD68ED06FCD4C6
:1034F000084B9B68631A934204DA14F8015B054B8E
:103500009D60F2E7024B4FF480329A6130BD00BFFC
:1035100000C009200080084007B5002302A901224D
:1035200001F8013D00F01F001346FFF76DFF9DF805
:10353000070003B05DF804FB07B502AB03F8011DFB
:1035400000F01F0019460122002340F02000FFF781
:103550005BFF03B05DF804FB08B51720FFF7DCFF45
:10356000C0F3001008BD07207021FFF7E5BF034638
:103570000A46A02019460023FFF746BF08B50020E1
:10358000FFF7CAFFBDE8084000F0FE010020FFF78A
:10359000D3BF0000024B4FF08072DA61704700BF6A
:1035A00020C0092008B50020FFF7B6FF40F0010158
:1035B000C9B20020FFF7C0FF024B4FF080729A6142
:1035C00008BD00BF20C0092007202021FFF7B4BF9D
:1035D0000021E1200A460B46FFF716BF37B50C461F
:1035E0000546FFF7F5FF21462846FFF7C0FF0D4BC4
:1035F0004FF080721C469A610022ADF80620BDF89B
:10360000063001339BB2ADF8063033B94FF080730A
:10361000E361FFF7DDFF03B030BDFFF79DFF00283A
:10362000EDD0F3E720C0092008B51720FFF774FF9D
:1036300000F0010080F0010008BD07204021FFF7E5
:103640007BBF08B503460A46612019460123FFF7F0
:10365000DBFEC0F3420008BD0021E2200A460B4613
:10366000FFF7D2BE70B5064600200D461446FFF7A0
:1036700053FF16B100F0BF0002E040F04000C0B2BE
:1036800015B100F0DF0101E040F0200114B101F0BC
:10369000EF0101E041F010010020BDE87040FFF7AC
:1036A0004BBF10B504460020FFF736FF14B900F0F9
:1036B000F7010DE0012C04D100F0FB0141F00801FD
:1036C00006E0022C14BF40F0080140F00C01C9B222
:1036D0000020BDE81040FFF72FBF08B50020FFF71E
:1036E0001BFFBDE8084040F00201C9B20020FFF70F
:1036F00023BF08B50020FFF70FFFBDE8084000F02A
:10370000FD010020FFF718BF40F6DD13984206D8F0
:1037100040F66213B0F5166F38BF184600E0184641
:10372000A0F51661C9B20520FFF706BF10B5044623
:103730000620FFF7F1FEFA2C00F0D70102D141F08C
:10374000200104E0B4F5FA6F08BF41F0080106203B
:10375000BDE81040FFF7F0BE10B504460620FFF7A5
:10376000DBFE032C20F0060028BF032440EA4401BE
:10377000C9B20620BDE81040FFF7DEBEF9284FF0C1
:10378000FA0305D9B0F57A6F88BF4FF47A6000E08C
:103790001846B0FBF3F00F2900F1FF30C0B228BF8C
:1037A0000F2141EA0011C9B20420FFF7C5BE113054
:1037B000C0B2162804D8202928BF2021FFF7BCBE9C
:1037C0007047032804D0042814BF0321022100E01D
:1037D00001210320FFF7B0BE03460A4630201946F8
:1037E0000023FFF711BE03460A462A20194600238C
:1037F000FFF70ABE73B50E4615460446FFF72CFFC9
:10380000FFF7E6FE2B4B4FF08072DA61FFF771FF96
:1038100000210A460120FFF725FFFFF7A4FE022042
:10382000FFF73FFF3046FFF76FFF2846FFF77EFFA9
:103830000320FFF791FF02200321FFF77DFE012007
:103840000021FFF779FE4FF4FA700321FFF796FF8E
:1038500021460020FFF7ABFF12200021FFF76CFE8E
:1038600013200021FFF768FE14200021FFF764FEFB
:1038700015200021FFF760FE00211620FFF75CFEF7
:103880000D4B18681B79009005208DF80430FFF768
:1038900098FF68460521FFF79FFF68460521FFF75F
:1038A000A2FFFFF71AFF4FF4FA6004F00CFC02B01D
:1038B00070BD00BF20C00920D745020070B5174E6B
:1038C000326822B90320202105F014FE3060144D27
:1038D0002A6822B90120202105F00CFE2860114C35
:1038E000216821B90120032205F004FE2060202078
:1038F00040F6C3114FF4FA62FFF77CFFFFF752FE68
:1039000016200121084A04F0A1FD306828B128687A
:1039100018B12068003018BF012070BD50C30720C7
:103920004CC3072054C30720D539010070B50646A3
:103930000379002203F0C003C02B0CBF0D4B0E4BCC
:1039400088B01D6831462846134605F0F9FD044647
:1039500060B9224623466946284605F0F5FE224610
:1039600023462846314605F0EBFD0446204608B0C4
:1039700070BD00BF4CC3072050C3072038B50446B4
:103980000D46FFF723FA237883420AD0E37843B940
:103990000AF048FABD2300F0030000FB033004F0F6
:1039A00092FBFFF7F7FDFFF7E9FD2046A9B2FFF70D
:1039B00015FEFFF709FEFFF7F5FD06F0AFFC022844
:1039C00004D1034B0021186805F08CFE012038BD9E
:1039D00054C3072007B5002302A941F8043D084B52
:1039E000186805F07FFE019B3BB1064B4FF08052FB
:1039F0001A60BFF34F8FBFF36F8F03B05DF804FB06
:103A000054C3072004ED00E038B505460C46FFF727
:103A10000BFE48B1A1B22846FFF713FEFFF704FEE4
:103A200008B9FFF70AFE012038BD2DE970430646AC
:103A30000D46144606F072FC022807D12246304695
:103A40002946002305F080FEC4B21DE007F028F8E7
:103A50004FF47A72002308F08FFA10EB040841F15A
:103A60000009002230462946134605F06DFEC4B217
:103A700054B907F015F84FF47A72002308F07CFA75
:103A8000894508BF8045ECD22046BDE870830429F3
:103A900038B5054603D1041C18BF012400E00024FA
:103AA00006F0FEFF2CB14FF47A72002308F064FA9E
:103AB0002860204638BD000000B50C4B8DB009933E
:103AC0000B4B0C4A0B930C4B0A930CAB43F8102D89
:103AD000002204920FCB8DE80F00084B0121084A09
:103AE0006A20FFF727FA0DB05DF804FBBD3801002E
:103AF000093A01008F3A01007D3901002D3901009A
:103B0000DC45020003460A46024908681946FFF7E9
:103B10008CBF00BF50C3072003460A46024908680D
:103B20001946FFF782BF00BF4CC3072008B506F057
:103B3000F5FB0F4B02285B6913D15A020DD5FFF735
:103B40002DFC0C4B00284FF00001186814BF012217
:103B50004FF0FF320B4605F0F7FDBDE80840FFF7D8
:103B6000BBBA5B02F9D5FFF719FC0028F5D108BDF7
:103B700000C0092054C3072030B504460D46134643
:103B800021792A46BDE83040006805F0EFB81FB53E
:103B90000A4604AB0021022423F8041D0179009495
:103BA000006805F0CEF89DF80C009DF80D3043EA52
:103BB000002004B010BD10B504462A211922FFF7D9
:103BC000DBFF206821790D2205F0BFF8A0F12A0360
:103BD0005842584110BD0000044A13881F2B9FBF54
:103BE000581C1080024A42F8231070475CC307201B
:103BF00060C30720144AF0B51488012C20D9134B58
:103C000000211F46661EB14206DA58681D68013160
:103C1000401B43F8040BF5E77B6803EB53010023DB
:103C200018469CB2B44209DA57F8245001338D4249
:103C300082BF012505FA04F42043F2E7044B186023
:103C400000231380F0BD00BF5CC3072060C30720C2
:103C500058C3072008B50220012106F0B9FE084B21
:103C600001209A6A22F007029A629A6A42F00602DA
:103C70009A62044AD36843F03003D36008BD00BFA2
:103C80000080004000C0024008B5044A01F07F03F4
:103C90004171D25C0321FFF76FFF08BDE1450200CF
:103CA00008B5044A01F07F038171D25C0221FFF75D
:103CB00063FF08BDE145020038B50446006821797C
:103CC00005F05FF8054688B1204606210022FFF77F
:103CD00053FF204607210022FFF74EFF20462E21EA
:103CE000FFF7D2FF20462E21FFF7DAFF284638BD26
:103CF000642370B5B1FBF3F404FB1311CCB20A21B9
:103D0000B4FBF1F501FB15413031C9B20646FFF7AE
:103D1000C7FF092C8ABF05F1300130463046BDE8A7
:103D2000704094BF2021C9B2FFF7AEBF0120704799
:103D300038B50D46044606F02DFC05F00F03237040
:103D4000114B15F0010F4FF0010214BFDA619A61B7
:103D5000227812F0020F4FF0020214BFDA619A616A
:103D6000227812F0040F4FF0100214BFDA619A614A
:103D7000227812F0080F4FF4807214BFDA619A6152
:103D8000BDE8384006F016BC20C00920012070476D
:103D9000022004F02DBA012070470000044B5B693B
:103DA000C3F38130C3F3412343EA8000704700BF6F
:103DB00020C0092010B5044601218122FFF7DCFE56
:103DC00020682179012204F0C0FF10F0600F14BFB9
:103DD0000120002010BD38B500210546FFF7D7FEB1
:103DE0008122012184B22846FFF7C6FE24B21020AA
:103DF00094FBF0F007F0D6FE4FF0765107F026FF67
:103E0000A96807F01BFE38BD08B5FFF7E4FF0549B8
:103E100007F01CFF044907F0CDFF4FF0844107F085
:103E20000DFE08BD000010410000A0402DE9F04F3C
:103E30000546ADF2546D0C46904682A829460122F3
:103E40009946DDF878A602F011F8002867D12146DE
:103E50000DF22C400A2202F009F8044620B182A893
:103E600002F075FA20465AE083460646009001901B
:103E700006F016FE4FF47A72002308F07DF802A9CE
:103E800007464FF4007282A86B4602F088F8054698
:103E9000D8B9009BCBB106F003FE4FF47A72002331
:103EA000F61B08F069F8064406F0FAFD4FF47A7242
:103EB000002308F061F802A90746009A0DF22C4091
:103EC00001AB02F02AF90546B8B1B8F1000F01D0F4
:103ED000C8F80060B9F1000F01D0C9F800B0BAF11C
:103EE000000F01D0CAF8004082A802F030FA0DF2AB
:103EF0002C4002F02CFA284611E0019A009B9A42CD
:103F0000E3D106F0CDFD4FF47A72002308F034F8C7
:103F1000009BBBEB070200EB020B1C44A8E70DF271
:103F2000546DBDE8F08FF0B50446ADF50B7D0F463E
:103F3000164621461D4601A800230122009301F0E8
:103F400095FF044670B91DB101A8294602F011FA87
:103F500001A8394632466B4602F021F8044601A812
:103F600002F0F5F920460DF50B7DF0BDF0B50446E5
:103F7000ADF50B7D0F46164621461D4601A80023D0
:103F80000A22009301F072FF044670B91DB101A826
:103F9000294602F0EEF901A8394632466B4602F096
:103FA000BCF8044601A802F0D2F920460DF50B7DBD
:103FB000F0BDF0B50446ADF50B7D0F461646214623
:103FC0001D4601A800231222009301F04FFF044672
:103FD00080B901A80DB1294600E0049902F0C9F9A1
:103FE00001A8394632466B4602F097F8044601A80C
:103FF00002F0ADF920460DF50B7DF0BD7F2816D9F6
:1040000031B1FF2812D80A4B803833F810007047BE
:10401000074A8BB232F81120824203D00131802945
:10402000F6D10B4603F18000C0B270470020704704
:10403000624602000023064A32F8132032B1904251
:1040400001D00133F7E7034A32F81300704700BF8D
:10405000424902006247020010B501200C4605F0FB
:10406000F1FA2060003018BF012010BD0120704718
:1040700010B5044606F052F902280AD100210B4679
:1040800020464FF0FF3205F05FFB431E5842584177
:1040900010BD012010BD10B5044606F03FF90228FE
:1040A00007D100212046BDE810400A460B4605F026
:1040B00047BA10BD10B5044604F04CFC24B1012CE5
:1040C00006D100F07BF901E000F0EEFC044600E0D0
:1040D000042404F057FC204610BD28B1012801D06B
:1040E0000420704700F018BA7047F8B507460E462E
:1040F00015461C4604F02EFC3FB1012F0CD1304672
:104100002946224600F010FA04E0304629462246AD
:1041100000F016FD044600E0042404F033FC2046C1
:10412000F8BDF8B507460E4615461C4604F012FCCD
:104130003FB1012F0CD130462946224600F042FA09
:1041400004E030462946224600F020FD044600E007
:10415000042404F017FC2046F8BD70B506460D4651
:10416000144604F0F7FB36B1012E0AD12846214649
:1041700000F082FA03E02846214600F02BFD0446B9
:1041800000E0042404F0FEFB204670BD08B506F0F4
:1041900087FC4FF47A72002307F0EEFE08BD0000A2
:1041A00010B5044606F0F4FD074BB0FBF3F0022314
:1041B000B0FBF3F2944202D3044A136110BDB3F58D
:1041C000807FF9D00233F3E740420F000000034044
:1041D000044B9860DA68D206FCD4024B9868C0B2EF
:1041E000704700BF0000034038B5FFF7CFFF00F570
:1041F000FA75FF20FFF7ECFFFF20FFF7E9FFFF282C
:10420000044606D0FFF7C2FF0023994208BFA84228
:10421000F2D3204638BD000038B5064C4FF000758B
:10422000E561FFF7E1FF044AA561137843F001035C
:10423000137038BD20C0092006C0072070B50546A0
:104240000E46FFF7A3FF00F16404FF20FFF7C0FF55
:10425000FF2808D1FFF79AFF0023994208BFA04228
:10426000F3D3002070BDFE28FBD1102E06D92846BE
:104270004FF40071002204F00BFB19E02C1DFF200D
:10428000FFF7A6FF04F8040CFF20FFF7A1FF04F8D6
:10429000030CFF20FFF79CFF04F8020CFF20FFF740
:1042A00097FF043404F8050C331D1B1BDD42E6D1D7
:1042B000FF20FFF78DFFFF20FFF78AFF012070BD71
:1042C00070B506460D46FFF78FFFFF28044619D14B
:1042D0002846FFF77DFFFD2D16D04FF400712246D2
:1042E000304604F0D5FA2046FFF772FF2046FFF76C
:1042F0006FFF2046FFF76CFF00F01F00431F58427E
:10430000584170BD002070BD012070BD020638B557
:1043100004460D4607D577200021FFF7F7FF012857
:1043200036D804F07F041B4B4FF000729A61DA61BB
:10433000FFF75AFFFF282AD12046FFF749FF280E32
:10434000FFF746FFC5F30740FFF742FFC5F307201D
:10435000FFF73EFFE8B2FFF73BFF402C04D0482CAC
:104360000CBF8720012000E09520FFF731FF4C2C87
:1043700002D1FF20FFF72CFF0A24FF20FFF728FFC0
:10438000030605D5013C14F0FF04F6D138BDFF202B
:1043900038BD00BF20C00920064A07491378496983
:1043A000DBB2490154BF03F0FD0343F00303137074
:1043B000704700BF06C0072020C009202DE9F34741
:1043C000FFF7EAFF514B1A781E4612F0020F01D098
:1043D000187896E00120FFF7E3FE0A24FF20013C55
:1043E000FFF7F6FE14F0FF04F8D1494D4FF00073CB
:1043F000EB6140202146FFF789FF012801D000240E
:104400006EE0FFF7C3FE4FF4D57100F57A7A4820CD
:10441000FFF77CFF01283DD1FF20FFF7D9FE01AF58
:1044200038550134042CF7D19DF80630012BE6D124
:104430009DF80730AA2BE2D1FFF7A8FE4FF0000944
:10444000494508BF5045D04606D3FFF79FFE494572
:1044500008BF4045D3D207E0E9204FF08041FFF785
:1044600055FF0028E8D1F0E77A200021FFF74EFF42
:104470000028C4D10446FF20FFF7AAFE38550134B6
:10448000042CF8D19DF8043013F0400F14BF0C2415
:10449000042425E02146E920FFF738FF022835BF34
:1044A00002240124E9274127FFF770FE4FF000099D
:1044B000494508BF5045D0460BD3FFF767FE494535
:1044C00008BF40450CD34FF400715020FFF71EFF8A
:1044D00006E038460021FFF719FF0028E4D1ECE799
:1044E0000C4B1C704FF00073AB613CB1337818205B
:1044F00003F0FE033370FFF753FE01E0FFF78CFE7D
:104500003078C0B202B0BDE8F08700BF06C0072017
:1045100020C00920E0C3072008B5FFF73DFF014B8D
:10452000187808BD06C00720F8B5144607460E46A1
:10453000FFF732FF002C3AD01F4B1B78DB0738D433
:104540001E4B4FF00072DA611D4A1D46127812F0C0
:10455000080F08BF7602012C0DD151203146FFF71C
:10456000D5FEE8B938464FF40071FFF767FEB0FAA0
:1045700080F4640914E052203146FFF7C7FE78B991
:1045800038464FF40071FFF759FE28B1013C14F092
:10459000FF0407F50077F3D14C200021FFF7B6FEAA
:1045A0004FF00073201CAB6118BF0120F8BD042040
:1045B000F8BD0320F8BD00BF06C0072020C00920B9
:1045C000E0C30720F8B5144607460E46FFF7E4FEA1
:1045D000002C45D0254B1A78D20743D41B785B07B3
:1045E00042D4234B4FF00072DA61224A1D46127802
:1045F00012F0080F08BF7602012C0CD1582031466A
:10460000FFF784FE28BB3846FE21FFF759FEB0FABB
:1046100080F464091DE012F0060F03D0D720214674
:10462000FFF774FE59203146FFF770FE88B938460F
:10463000FC21FFF745FE28B1013C14F0FF0407F50B
:104640000077F4D10020FD21FFF73AFE002808BFD3
:1046500001244FF00073201CAB6118BF0120F8BD8E
:104660000420F8BD0320F8BD0220F8BD06C00720D5
:1046700020C00920E0C307207FB504460D46FFF7A0
:104680008BFE052C1AD12B78012B00F0FD8003D373
:10469000022B0BD00420FAE07E4B586910F08064A6
:1046A00040F0F280FFF7B8FD2046F0E0794B5B69FF
:1046B00083F08063C3F380636B70E5E0764B1B7817
:1046C000DB0700F1E3800E2C00F2D880DFE804F075
:1046D00008124F53D6D6D6D6D6D6A3A8AAB4C400AD
:1046E0006C4B4FF00072DA61FFF77EFDFF3818BFA8
:1046F0000120C4E049200021FFF708FE044608B16C
:104700000120BCE068461021FFF798FD0028F7D093
:104710009DF800309DF809009B09012B9DF8083099
:1047200005D1013000EB03239BB29B021CE09DF8F6
:104730000710890001EB93135A1C9DF806309DF871
:10474000051003F0030302EB83239DF80A2001F018
:104750000F0101EBD212911C00F0030201EB4202A7
:10476000D2B29BB2093A93402B60204687E04FF4C7
:1047700000732B8052E0494E337803F0040303F0BA
:10478000FF01DBB1CD200021FFF7C0FD0028B7D12C
:10479000FF20FFF71DFD68461021FFF74FFD0028A1
:1047A000AED03024FF20FFF713FD601E10F0FF0491
:1047B000F8D19DF80A2010231209D4E74920FFF709
:1047C000A5FD044600289BD168461021FFF736FD61
:1047D000002895D031789DF80A2001F0020101F0FF
:1047E000FF009DF80B3051B102F03F02DB0903EBF3
:1047F00042039DF80D2001339209013AB3E7C2F359
:10480000840103F003045A0902EBC402531C01FBA8
:1048100003332B6033E0214B1B782B7000202EE0FC
:10482000492000E04A200021FFF770FD00287FF4B6
:1048300067AF284610211BE07A200021FFF766FDB4
:1048400000287FF45DAF2C1DFF20FFF7C1FC05F8A9
:10485000010BA542F8D1E1E7CD200021FFF756FD7D
:1048600000287FF44DAFFF20FFF7B2FC284640211F
:10487000FFF7E4FCB0FA80F0400900E00420054BAB
:104880004FF000729A6102E0002000E0032004B0C3
:1048900070BD00BF20C0092006C00720E0C307206C
:1048A000054B1B78253BDBB2032B9ABF034A52F81A
:1048B00023000020704700BFE4C307202C4B0200F8
:1048C0001B4B2DE9F0411D880646B5F5007F0F46CC
:1048D000144602D1084611460AE0B5F5807F09D199
:1048E000084611462A46B04707F5807004F58071E6
:1048F0002A4617E0B5F5047F05D1510A38468902EA
:104900004FF400720EE0B5F5847F0FD1140A08460B
:104910004FF480726102B047611C07F58070490254
:104920004FF480723346BDE8F0411847BDE8F0818E
:10493000E2C30720034610B500295DDD07291A7878
:104940002E4C2FDDA2605A780839A2609A78A260B6
:10495000DA78A2601A79A2605A79A2609A79A26084
:1049600003F10802DB79A360244B9C696407FBD543
:104970009C6804709C6844709C6884709B68C370D9
:104980001E4BDC68E406FBD49C68083000F8044C3D
:104990009C6800F8034C9C6800F8024C9B6800F887
:1049A000013C1BE003291BDDA2605A780439A26098
:1049B0009A78A2601A1DDB78A360104BDC68E406CD
:1049C000FBD49C68043000F8044C9C6800F8034C4D
:1049D0009C6800F8024C9B6800F8013C1346ABE76A
:1049E0000133A2600139E268D206FCD4034A0130E7
:1049F000926800F8012C9FE710BD00BF0000034043
:104A000007B50B0C8DF804008DF805308DF80710F4
:104A10000B0A01A804218DF80630FFF78BFF03B0C5
:104A20005DF804FBF7B5164607460E4C40250323F8
:104A3000E5618DF804300B0C8DF805308DF807100A
:104A40000B0A01A804218DF80630FFF773FF3846E2
:104A50003146002203F01CFFA561A561A56103B0EA
:104A6000F0BD00BF00C009200D4B4022DA610D4BA4
:104A7000D7229A60DA68D106FCD40A4B9B68094BAE
:104A8000FF229A60DA68D206FCD4064B98680306C7
:104A9000F5D5034B40229A61C0B29A619A61704782
:104AA00000C0092000000340F7B5FFF7DDFF1F4CF1
:104AB000002323801E4B1F4E40271A889B78F761E6
:104AC0000546032101A8ADF804208DF80630FFF754
:104AD00031FF9DF805209DF806301F2AB761B761A8
:104AE000B7611CD1A3F12502032A18D8124A252B3D
:104AF000137005F0010006D1002814BF4FF4807335
:104B00004FF4847305E0002814BF4FF400734FF492
:104B100004732380FFF7C4FE084B400A1860208806
:104B2000B0FA80F0400903B0F0BD00BFE2C3072037
:104B3000224B020000C00920E4C30720E8C307207D
:104B40002DE9F0418B1817460E4A013B126880464A
:104B5000934214D84D024446FFF786FF0026C8EB67
:104B60000502BE42224407DA21460748FFF7A8FEA5
:104B700004F500740136F2E70020BDE8F081012061
:104B8000BDE8F081E8C30720254A01002DE9F04186
:104B90008B1817460D4A013B12688046934212D883
:104BA00004464D020026C8EB0502BE42224407DA45
:104BB00021460748FFF784FE04F500740136F2E74A
:104BC0000020BDE8F0810120BDE8F081E8C30720A6
:104BD000B54C010010B50C46072805D8DFE800F0F9
:104BE00006090E1214141414042010BDFFF73CFF24
:104BF0000AE0FFF755FE400A206005E04FF400731D
:104C00000B8001E001230B60002010BD70B590B057
:104C100003466A466E4600F1400514461868596816
:104C2000083303C4AB422246F7D1084D4024EC615F
:104C30009B200021FFF7E4FE30462146FFF77AFE75
:104C4000AC61AC61AC6110B070BD00BF00C00920A8
:104C500070B50646074D402477200021EC61FFF730
:104C6000CFFE30462146FFF765FEAC61AC61AC611A
:104C700070BD00BF00C00920064B10B51C8834F081
:104C80001F0404D0FFF70CFEB0FBF4F010BD20466B
:104C900010BD00BFE2C30720014B1888704700BF5A
:104CA000E2C30720024B1878003018BF012070477C
:104CB000E2C307202DE9F7434FF0FF330F4690463C
:104CC00001938146FFF7D0FEFFF7ECFF0646B0B137
:104CD000194C4025194BE5611B880320B3F5847FEF
:104CE0000CBF4FF480714FF400713943FFF788FE19
:104CF00001A80421FFF71EFEA561A561A5610E4C68
:104D0000402382203946E361FFF77AFE4846414658
:104D1000012203F0BDFD3EB1019B02A8013340F822
:104D2000043D0421FFF706FE4023A361A361A361B4
:104D300003B0BDE8F08300BF00C00920E2C3072034
:104D4000F7B5124B07461B88B3F5847F4FF0FF334E
:104D50000CBF4FF480764FF400760193FFF7A2FF6B
:104D600070B10B4C4025032046EA4721E561FFF76F
:104D700047FE01A80421FFF7DDFDA561A561A5613E
:104D80000198431C08BF002003B0F0BDE2C3072018
:104D900000C0092037B5074B074C18684025019023
:104DA0000421E56101A8FFF7C5FDA561A561A56125
:104DB00003B030BD254B020000C009201FB501A87B
:104DC00003F08AFC9DF809309DF8082003F00F03DA
:104DD00002F01F025B0543EA02419DF806309DF890
:104DE000040003F01F0341EAC3229DF80530C0F31D
:104DF000440003F03F0342EA4313BDF80A2018437E
:104E0000520602F10842104305B05DF804FB30B5CC
:104E100004460D1F131B0344032B04D955F8043F0C
:104E200044F8043BF6E722F00303194402F00302BE
:104E3000013B18440A44914204D011F8013B00F8A8
:104E4000013FF8E730BD0244904202D000F8011B58
:104E5000FAE7704700F10B010023DA0142EA53033D
:104E600010F8012B1344884203F0FF03F5D11846D4
:104E70007047026810B50446BAB11346184613F8D5
:104E8000011B1F2902D93A29F8D101E0002010BDE9
:104E9000114611F8013B884207D1303BD9B20129B4
:104EA00003D802321846226010BD4FF0FF3010BD0B
:104EB00003692DE9F04101F109020D4653B341693F
:104EC00000244E1E16F8013F0134202B18D0052B6C
:104ED00047D0092C02D12E2717700132A3F14107C8
:104EE000192F0BD8082C0F7B8CBF4FF0100E4FF0F2
:104EF000080E1EEA070F1CBF2033DBB2137001320D
:104F00000B2CDFD1CB7A2B72CB692B600B8BAB8058
:104F1000CB8AEB8000241470AE693EB303690BB9F1
:104F200000241AE0EB69002BFAD04FF6FF73028CD5
:104F30009A42F5D0D0F81C80771E38F8140060B182
:104F40000021FFF75BF80028EAD0EB69013B9C42A7
:104F5000E6D2013407F8010FEFE700233355BDE82F
:104F6000F081092C4FF0E503C8D1B4E7BDE8F0812A
:104F7000F8B5037904460BB90020F8BD056B00F1C4
:104F80003407394640782A460123FFF7CAF890B91A
:104F9000636AE269EB1A93422071EDD2E678012E42
:104FA000EAD9E36960781D4439462A460123FFF7B0
:104FB000B8F8013EF3E70120F8BD0000F8B504465B
:104FC000FFF7D6FF05468DBB2378032B26D16679E4
:104FD000012E23D104F13407384629464FF40072DC
:104FE000FFF731FF4AF65523A4F83232104B226AFC
:104FF000636303F1FF5303F500532033C4F8183201
:1050000063690132C4F81C3223692263C4F8203278
:10501000607839463346FFF784F86571002160787F
:105020000A46FFF79AF8003018BF0120F8BD00BF0C
:1050300052526141036B70B5994205460E4610D03D
:10504000FFF796FF044608B101240BE0687805F1EC
:10505000340132460123FFF748F80028F4D12E63CB
:1050600000E00024204670BD002310B503714FF00E
:10507000FF3303630446FFF7DDFFA0B94AF655236B
:10508000B4F832229A4210D1D4F86A30084A23F098
:105090007F4393420AD0D4F8860020F07F40801AE4
:1050A00018BF012010BD032010BD022010BD00BF9D
:1050B00046415400F0B50023036085B0074608461A
:1050C0001546FFF7D6FE061EC0F2F2807E4B53F85F
:1050D0002640002C00F0EE80E068FEF7C9FF0028B3
:1050E00000F0EA803C60237883B16078FEF7F5FF3A
:1050F000C1070BD4002D00F0D98000F0040303F0A9
:10510000FF00002B00F0DD800A20DAE00023F0B27F
:1051100023706070FEF7CEFFC20700F1CF800DB1A3
:105120004307F1D420460021FFF79EFF01281CD140
:105130002146002291F8F6310BB1D1F8FA314DF841
:1051400022300132042A01F11001F3D100265DF86A
:1051500026502DB120462946FFF786FF08B90BE0FF
:1051600002200136042EF2D100E00025032800F0D1
:10517000A78008B10D20A4E0B4F83F30B3F5007F5C
:10518000F8D1B4F84A0000B9A06D94F844E0E061A9
:105190000EF1FF33012B84F803E0EBD894F8413093
:1051A000A370002BE6D05A1E1A42E3D1B4F845C0D2
:1051B0001CF00F0FA4F808C0DCD1B4F8472002B9E6
:1051C000626DB4F842100029D4D00EFB00FE01EB52
:1051D0001C177744BA42CDD3D21BB2FBF3F3002B9A
:1051E000C8D040F6F572934206D94FF6F576B34231
:1051F0008CBF0326022600E00126023329442F44F7
:10520000032EA36125626162E76206D1BCF1000F43
:10521000B0D1226E9B00A26210E0BCF1000FA9D0B9
:10522000022E4FEA43020CBF1346D218714418BF36
:1052300003F00103A16218BF03EB520303F2FF1353
:10524000B0EB532F96D34FF0FF3363612361032EEE
:105250004FF08003637122D1B4F86430012B1ED16A
:105260002046691CFFF7E6FEC8B94AF65523B4F894
:10527000322260719A4212D1626B144B9A420ED163
:1052800003F1FF53D4F8182203F5005320339A4258
:1052900001BFD4F81C326361D4F8203223610C4A78
:1052A0002670138801339BB21380E380002008E04E
:1052B0000B2006E00C2004E00F2002E0032000E0B9
:1052C000012005B0F0BD00BFF0C30720525261417C
:1052D000ECC3072010B50446A8B103689BB11A7847
:1052E0008AB1D988828891420DD1D868FEF7C0FE74
:1052F00058B123685878FEF7F0FE10F0010F14BF84
:105300000320002010BD092010BD0F2010BD50B19A
:10531000A1F10B03012B06D9092904D00F2902D0D2
:10532000C068FEF7B8BE704783690239023B9942F4
:105330003DBF8278C36A02FB01300020704701291B
:10534000F8B507460C464BD98369994248D2037891
:10535000022B29D0032B34D0012B41D101EB510674
:10536000416A01EB5621FFF765FE10B14FF0FF30A7
:10537000F8BD796AC6F3080301363B44384601EBB1
:10538000562193F83450FFF755FE0028EED1C6F3AE
:1053900008063E4496F83400E30745EA00204CBF77
:1053A0000009C0F30B00F8BD416A01EB1421FFF7BF
:1053B00041FE0028DAD1630003F4FF73FE18B08EBB
:1053C000F8BD416A01EBD411FFF734FE0028CDD1BE
:1053D000A40004F4FE743C44606B20F07040F8BDFF
:1053E0000120F8BDF8B5054684680E46012CE98019
:1053F00001D10220F8BD03689A699442F9D254B9E8
:105400001A78032A01D19A6A22B91A899642F0D2EF
:10541000986A17E0144621469F783F01BE420DD39B
:105420002868FFF78CFF431C01461AD00128E0D9F9
:105430002B689B699842DCD2F61BEFE728680C4684
:10544000FFF772FFEC600028D3D02B6800EB16103A
:1054500006F00F0603EB4616343628616E61002015
:10546000F8BD0120F8BD0129F8B505460C461646E1
:105470005FD9836999425CD20378022B38D0032B21
:1054800042D0012B51D101EB5107416A01EB572169
:10549000FFF7D0FD002849D1C7F3080314F0010439
:1054A0002B4418BF93F83410F2B21EBF01F00F0165
:1054B00041EA0212D2B2696A83F83420013701232B
:1054C0002B71284601EB5721FFF7B4FD70BBC7F3E2
:1054D00008072F4414B1C6F3071606E097F83430D6
:1054E000C6F3032623F00F031E4387F834601DE044
:1054F000416A01EB1421FFF79DFDB8B9640004F483
:10550000FF742C44A68611E0416A01EBD411FFF729
:1055100091FD58B9A40004F4FE7430342C4463683F
:1055200003F070431E43666000E0022001232B71EC
:10553000F8BD0220F8BDF8B505460F4631B9066939
:1055400096B183699E4228BF01260EE0FFF7F7FE61
:1055500001283FD9441C02D14FF0FF30F8BDAB69A0
:10556000984238D33E4600E001263446AB69013408
:105570009C4204D3012E01D80020F8BD0224284605
:105580002146FFF7DCFE30B1411C24D0012822D097
:10559000B442EBD1F0E7284621466FF07042FFF7A6
:1055A00062FFA8B957B96B692C615A1C0ED0013B38
:1055B0006B616B7943F001036B7107E02846394654
:1055C0002246FFF750FF0028EDD001E02046F8BD4D
:1055D0000128C1D00120F8BD2DE9F843C688044652
:1055E0000136B3B20F4613B90420BDE8F88303694E
:1055F000002BF9D016F00F0859D1C16801330361AF
:10560000006819B903899E42EED250E08378013BCD
:1056100013EA16134BD1FFF792FE0128054602D874
:105620000220BDE8F883421C02D10120BDE8F883C6
:10563000206883699D4234D3002FD5D0E168FFF7FD
:105640007AFF054600283BD00128E9D0431CECD066
:105650002068FFF78DFC07460028E6D12068394610
:1056600034304FF40072FFF7EEFBD4F80090294677
:105670004846FFF759FEC9F8300023689A789742E8
:105680000CD201221A712068FFF772FC0028CCD1DD
:1056900022680137136B01331363EEE71A6BD71BD4
:1056A0001F63E56020682946FFF73EFE20612368FE
:1056B000E68003EB4813343363610020BDE8F883D0
:1056C0000720BDE8F88300002DE9F74F00210646CA
:1056D000FFF788FE002840F087804FF6FF734FF0F9
:1056E000FF084446338430683169FFF7A3FC002883
:1056F0007AD175692B78002B6DD0E52BE97A5FD0D4
:105700000F0701F03F0202D50F2A59D101E00F2AFD
:1057100042D1D6F81C90B9F1000F55D0580606D5E5
:1057200003F0BF04F38895F80D80338401E0A342B1
:1057300049D16B7B434546D12F784FF0000A27F0C3
:1057400040077B1E0D275F430123294A1AF80220D8
:10575000A85A83B1FEF76EFC7F2F019033D839F839
:105760001700FEF767FC019A07F1010B824203461E
:1057700029D15F4603E04FF6FF72904223D10AF130
:10578000010ABAF10D0FE0D12A78510629D543B3A9
:1057900039F817302BB316E024B92846FFF75AFB27
:1057A00080451AD0B369DA7AD20709D405F10B0023
:1057B000854214D015F8011B13F8012B9142F7D044
:1057C0004FF6FF733384FF2430460021FFF704FFB8
:1057D000002888D008E0042006E0204604E00020ED
:1057E00002E0013CE4B2EFE703B0BDE8F08F00BF98
:1057F000164C02002DE9F74F0B7807462F2B8846F1
:1058000001D05C2B01D108F101080024BC6098F89C
:1058100000301F2B5DD838462146FFF7E3FD7C6141
:105820000CE1013339F81320202AFAD02E2AF8D0BF
:105830000BB144F00304524632F8021D2E2901D068
:10584000013DF9D14FF0000B5E464FF0080A39F8E0
:1058500013005A1C002840F08A80BB691A78E52A98
:1058600004BF05221A70BAF1080F04BFB600F6B2E1
:1058700006F00C030C2B00F0C58006F00302032A8F
:1058800000F0C080A10709D406F00306012E08BF6E
:1058900044F01004042B08BF44F00804BB693846E8
:1058A000DC72FFF711FFBB69DB7A002840F0AD80A6
:1058B0005A0700F1C3807A69D37ADB0640F1AC80E5
:1058C0003968538B0978032904BF928A43EA02435B
:1058D000BB6098F8003044462F2B08F10108F8D03F
:1058E0005C2BF6D0D7F81C9004F1FF3AA9F1020620
:1058F00000251AF8010F05F101081F281AD92F28D1
:1059000018D05C2816D0B8F1810F00F087800121F3
:10591000FEF774FB002800F081807F2806D8494AF2
:1059200012F8013F13B18342FAD177E026F8020F53
:105930004546DEE72028A04409EB450334BF042494
:105940000024002D6AD033F8022D202A01D02E2AFF
:1059500001D1013DF5E7002629F81560B86920213D
:105960000B22FFF770FA09EB450A33465AE7202865
:1059700003D02E2805D1AA4252D044F00304134686
:1059800065E7D34502D2AA4216D149E0BAF10B0F1E
:1059900004D144F003044FF00B0A5EE7AA4203D09F
:1059A00044F003043FF659AFB600F6B22A464FF072
:1059B0000B0A4FF0080BE2E77F280CD90021019277
:1059C000FEF71CFB019A18B11F4B184410F8800C0D
:1059D00044F0020428B11D4911F8013F2BB1834264
:1059E000FAD144F003045F2006E0A0F141039BB22A
:1059F000192B19D846F00206BB6903F80B000BF10E
:105A0000010BBCE744F002043CE7042816D113F074
:105A1000040F08BF052011E005200FE006200DE06F
:105A2000BAF10B0FC0D1B4E7A0F161039BB2192BFF
:105A30009EBF203846F0010680B2DDE703B0BDE826
:105A4000F08F00BF514B0200964B02005A4B0200F0
:105A5000F0B5866987B0C4690546314603A80C22B3
:105A6000FFF7D5F99DF81730DB075ED50023F372F9
:105A70000127EB61304603A90B22FFF7C8F9052F78
:105A800015D93B46A01E30F8022F8AB1102102F032
:105A9000010E0EEB430313F4803F1CBF83F48833E5
:105AA00083F0210301394FEA5202F0D1EBE73B4684
:105AB000072203F00F0000F13001392988BF00F1FF
:105AC0003701013A06A810441B0900F8131CF0D155
:105AD00006A97E20114401F8140C934201D13344ED
